:100000000C942A000C943F000C943F000C943F0089
:100010000C943F000C943F000C943F000C943F0064
:100020000C943F000C943F000C943F000C943F0054
:100030000C943F000C943F000C943F000C943F0044
:100040000C943F000C943F000C943F000C943F0034
:100050000C943F0011241FBECFE5D8E0DEBFCDBF1A
:1000600010E0A0E6B0E0ECE7F3E002C005900D92EE
:10007000AA36B107D9F70E944D010C94BC010C942B
:100080000000813001F130F08230B1F1833009F4A9
:100090004CC00895413059F42AB381E090E002C089
:1000A000880F991F6A95E2F7822B8ABB08952AB3BD
:1000B00081E090E002C0880F991F6A95E2F7809571
:1000C00082238ABB0895413059F427B381E090E040
:1000D00002C0880F991F6A95E2F7822B87BB0895AB
:1000E00027B381E090E002C0880F991F6A95E2F77C
:1000F0008095822387BB0895413059F424B381E071
:1001000090E002C0880F991F6A95E2F7822B84BBAA
:10011000089524B381E090E002C0880F991F6A958A
:10012000E2F78095822384BB0895413059F421B3CE
:1001300081E090E002C0880F991F6A95E2F7822B58
:1001400081BB089521B381E090E002C0880F991F20
:100150006A95E2F78095822381BB089581111AC0C8
:10016000413061F49BB321E030E0062E02C0220F43
:10017000331F0A94E2F7292B2BBB0CC09BB321E061
:1001800030E0062E02C0220F331F0A94E2F72095BA
:1001900029232BBB8130D1F4413061F498B321E0A5
:1001A00030E0062E02C0220F331F0A94E2F7292BFB
:1001B00028BB0CC098B321E030E0062E02C0220F0D
:1001C000331F0A94E2F72095292328BB8230D1F40B
:1001D000413061F495B321E030E0062E02C0220FD9
:1001E000331F0A94E2F7292B25BB0CC095B321E0FD
:1001F00030E0062E02C0220F331F0A94E2F720954A
:10020000292325BB8330C1F4413059F422B381E066
:1002100090E002C0880F991F6A95E2F7822B82BB9B
:10022000089522B381E090E002C0880F991F6A957B
:10023000E2F78095822382BB0895813069F028F02F
:10024000823089F08330B1F008956F3F19F48FEF59
:100250008ABB08951ABA08956F3F19F48FEF87BBD0
:10026000089517BA08956F3F19F48FEF84BB08956E
:1002700014BA08956F3F19F48FEF81BB089511BA36
:10028000089541E00E944100089541E00E94AE00BF
:10029000089540E00E94AE00089585B36FEF0E947C
:1002A0001D0161E080E00E94410162E080E00E9467
:1002B000410163E080E00E94410181E00E949601DB
:1002C00061E080E00E9445012FEF3CE281E391E094
:1002D0002150304080409040D9F700C0000061E0DC
:1002E00080E00E94490162E080E00E9445012FEF1A
:1002F00031E18AE7215030408040E1F700C0000042
:1003000062E080E00E94490163E080E00E944501D4
:100310009FEF23E234EF915020403040E1F700C0DE
:10032000000063E080E00E944901C7CFCF93DF93D4
:10033000CDB7DEB72A970FB6F894DEBF0FBECDBF9C
:100340009AE0E0E6F0E0DE01119601900D929A95B8
:10035000E1F78A3040F4E1E0F0E0EC0FFD1FE80F38
:10036000F11D808185BB2A960FB6F894DEBF0FBEC3
:0C037000CDBFDF91CF910895F894FFCF2E
:0A037C003F065B4F666D7D077F6F43
:00000001FF
