:100000000C942A000C948E010C94BA010C944700B5
:100010000C9447000C9447000C9447000C94470044
:100020000C9447000C9447000C9447000C94470034
:100030000C9447000C9447000C9447000C94470024
:100040000C9447000C9447000C9447000C94470014
:100050000C94470011241FBECFE5D8E0DEBFCDBF12
:1000600010E0A0E6B0E0E6E1F5E002C005900D92F8
:10007000AA36B107D9F720E0AAE6B0E001C01D9288
:10008000AF36B207E1F70E9406020C9489020C9485
:100090000000813001F130F08230B1F1833009F499
:1000A0004CC00895413059F42AB381E090E002C079
:1000B000880F991F6A95E2F7822B8ABB08952AB3AD
:1000C00081E090E002C0880F991F6A95E2F7809561
:1000D00082238ABB0895413059F427B381E090E030
:1000E00002C0880F991F6A95E2F7822B87BB08959B
:1000F00027B381E090E002C0880F991F6A95E2F76C
:100100008095822387BB0895413059F424B381E060
:1001100090E002C0880F991F6A95E2F7822B84BB9A
:10012000089524B381E090E002C0880F991F6A957A
:10013000E2F78095822384BB0895413059F421B3BE
:1001400081E090E002C0880F991F6A95E2F7822B48
:1001500081BB089521B381E090E002C0880F991F10
:100160006A95E2F78095822381BB089581111AC0B8
:10017000413061F49BB321E030E0062E02C0220F33
:10018000331F0A94E2F7292B2BBB0CC09BB321E051
:1001900030E0062E02C0220F331F0A94E2F72095AA
:1001A00029232BBB8130D1F4413061F498B321E095
:1001B00030E0062E02C0220F331F0A94E2F7292BEB
:1001C00028BB0CC098B321E030E0062E02C0220FFD
:1001D000331F0A94E2F72095292328BB8230D1F4FB
:1001E000413061F495B321E030E0062E02C0220FC9
:1001F000331F0A94E2F7292B25BB0CC095B321E0ED
:1002000030E0062E02C0220F331F0A94E2F7209539
:10021000292325BB8330C1F4413059F422B381E056
:1002200090E002C0880F991F6A95E2F7822B82BB8B
:10023000089522B381E090E002C0880F991F6A956B
:10024000E2F78095822382BB0895813061F120F02E
:10025000823009F44FC00895611107C085B78160ED
:1002600085BF85B7826085BF1AC0613039F485B714
:100270008E7F85BF85B7826085BF11C0623039F43B
:1002800085B78E7F85BF85B78D7F85BF08C06330FA
:1002900031F485B7816085BF85B78D7F85BF8BB70A
:1002A00080648BBF0895611107C085B7846085BFE6
:1002B00085B7886085BF1AC0613039F485B78B7FF8
:1002C00085BF85B7886085BF11C0623039F485B7B6
:1002D0008B7F85BF85B7877F85BF08C0633031F4CA
:1002E00085B7846085BF85B7877F85BF8BB78068FA
:1002F0008BBF0895611104C084B7806484BF05C0BA
:10030000613019F484B78F7B84BF8BB780628BBF59
:10031000089590936D0080936C0008951F920F9242
:100320000FB60F9211242F933F934F935F936F93C8
:100330007F938F939F93AF93BF93EF93FF93E0913E
:100340006C00F0916D000995FF91EF91BF91AF9115
:100350009F918F917F916F915F914F913F912F91DD
:100360000F900FBE0F901F90189590936B00809385
:100370006A0008951F920F920FB60F9211242F93C7
:100380003F934F935F936F937F938F939F93AF931D
:10039000BF93EF93FF93E0916A00F0916B00099592
:1003A000FF91EF91BF91AF919F918F917F916F914D
:1003B0005F914F913F912F910F900FBE0F901F9023
:1003C00018958FB780688FBF089581E080936E0085
:1003D000089540E061E082E00E94B6002FE38DE0E6
:1003E00093E0215080409040E1F700C0000041E0E0
:1003F00061E082E00E94B6002FE38DE093E021509F
:1004000080409040E1F700C00000089541E061E0C5
:1004100082E00E94490040E062E083E00E944900DF
:1004200040E063E083E00E94490041E060E080E05A
:100430000E94490041E061E080E00E94490041E003
:1004400062E080E00E94490041E063E080E00E94B9
:10045000490041E064E080E00E94490041E065E03D
:1004600080E00E94490041E066E080E00E9449008F
:100470000E94E10189EE91E00E94890160E080E044
:100480000E94250185EE91E00E94B50160E081E0C7
:100490000E94250180916E008130E1F70EC08C2F03
:1004A0000E9463022FE38DE093E021508040904052
:1004B000E1F700C00000CF5F01C0C1E0CA3078F3AF
:1004C00010926E00E7CFCF93DF93CDB7DEB72A97B8
:1004D0000FB6F894DEBF0FBECDBF9AE0E0E6F0E0C5
:1004E000DE01119601900D929A95E1F78A3040F461
:1004F000E1E0F0E0EC0FFD1FE80FF11D80818BBB08
:100500002A960FB6F894DEBF0FBECDBFDF91CF9114
:060510000895F894FFCFEE
:0A0516003F065B4F666D7D077F6FA7
:00000001FF
