:100000000C942A000C9434000C9434000C943400AA
:100010000C9434000C9434000C9434000C94340090
:100020000C9434000C9434000C9434000C94340080
:100030000C9434000C9434000C9434000C94340070
:100040000C9434000C9434000C9434000C94340060
:100050000C94340011241FBECFE5D8E0DEBFCDBF25
:100060000E9441020C94E2020C940000813001F1E4
:1000700030F08230B1F1833009F44CC00895413042
:1000800059F42AB381E090E002C0880F991F6A9565
:10009000E2F7822B8ABB08952AB381E090E002C088
:1000A000880F991F6A95E2F7809582238ABB08958D
:1000B000413059F427B381E090E002C0880F991FC6
:1000C0006A95E2F7822B87BB089527B381E090E021
:1000D00002C0880F991F6A95E2F78095822387BB3B
:1000E0000895413059F424B381E090E002C0880FB4
:1000F000991F6A95E2F7822B84BB089524B381E0AF
:1001000090E002C0880F991F6A95E2F780958223DC
:1001100084BB0895413059F421B381E090E002C0DE
:10012000880F991F6A95E2F7822B81BB089521B34E
:1001300081E090E002C0880F991F6A95E2F78095F0
:10014000822381BB089581111AC0413061F49BB3B1
:1001500021E030E0062E02C0220F331F0A94E2F79E
:10016000292B2BBB0CC09BB321E030E0062E02C034
:10017000220F331F0A94E2F7209529232BBB8130ED
:10018000D1F4413061F498B321E030E0062E02C092
:10019000220F331F0A94E2F7292B28BB0CC098B317
:1001A00021E030E0062E02C0220F331F0A94E2F74E
:1001B0002095292328BB8230D1F4413061F495B3D6
:1001C00021E030E0062E02C0220F331F0A94E2F72E
:1001D000292B25BB0CC095B321E030E0062E02C0D0
:1001E000220F331F0A94E2F72095292325BB833081
:1001F000C1F4413059F422B381E090E002C0880F8D
:10020000991F6A95E2F7822B82BB089522B381E0A1
:1002100090E002C0880F991F6A95E2F780958223CB
:1002200082BB08958130B1F028F0823019F183301B
:1002300089F1089589B390E002C0959587956A95F4
:10024000E2F780FF04C081E0FA0180830895FA019B
:100250001082089586B390E002C0959587956A95BF
:10026000E2F780FF04C081E0FA0180830895FA017B
:100270001082089583B390E002C0959587956A95A2
:10028000E2F780FF04C081E0FA0180830895FA015B
:100290001082089580B390E002C0959587956A9585
:1002A000E2F780FF04C081E0FA0180830895FA013B
:1002B00010820895CF93DF93C82FD42F213019F0E7
:1002C000223051F012C041E00E94A30040E06D2FA7
:1002D0008C2F0E94A30011C040E00E94A30041E0C7
:1002E0006D2F8C2F0E94A30008C040E00E94A30045
:1002F00040E06D2F8C2F0E94A300DF91CF910895D5
:1003000021E043E062E083E00E945A0121E045E001
:1003100064E083E00E945A0121E043E062E082E071
:100320000E945A0121E045E064E082E00E945A0107
:1003300021E043E062E080E00E945A01089522E05B
:1003400043E062E083E00E945A0122E045E064E07D
:1003500083E00E945A0122E043E062E082E00E94D2
:100360005A0122E045E064E082E00E945A0122E066
:1003700043E062E080E00E945A01089522E043E0F9
:1003800062E083E00E945A0122E045E064E083E0FD
:100390000E945A0120E043E062E082E00E945A019C
:1003A00021E045E064E082E00E945A0121E043E060
:1003B00062E080E00E945A01089521E043E062E09B
:1003C00083E00E945A0121E045E064E083E00E945E
:1003D0005A0120E043E062E082E00E945A0122E0FC
:1003E00045E064E082E00E945A0122E043E062E0DE
:1003F00080E00E945A01089520E043E062E083E03B
:100400000E945A0120E045E064E083E00E945A0126
:1004100020E043E062E082E00E945A0120E045E0F3
:1004200064E082E00E945A0120E043E062E080E064
:100430000E945A0108950F931F93CF93DF9300D02A
:10044000CDB7DEB7182F062FAE014F5F5F4F0E946A
:10045000C7028FE39CE90197F1F700C00000AE01ED
:100460004E5F5F4F602F812F0E94C70289819A8162
:10047000891380E00F900F90DF91CF911F910F9122
:10048000089560E081E00E94C30261E081E00E9483
:10049000C30262E081E00E94C30263E081E00E9447
:1004A000C30264E081E00E94C30241E062E083E0B5
:1004B0000E94360041E063E083E00E94360041E0A4
:1004C00064E083E00E94360041E065E083E00E9442
:1004D000360041E062E082E00E94360041E063E0E5
:1004E00082E00E94360041E064E082E00E94360033
:1004F00041E065E082E00E94360041E062E080E099
:100500000E94360041E063E080E00E9436000E94D5
:10051000FC0160E081E00E941B02C82F61E081E0E5
:100520000E941B02D82F62E081E00E941B02182F5C
:1005300063E081E00E941B02082F64E081E00E94DA
:100540001B02813019F40E94FC0116C0C13019F45D
:100550000E94800111C0D13019F40E949F010CC08B
:10056000113019F40E94BE0107C0013019F40E9435
:10057000DD0102C00E94FC018FE59AEE0197F1F7C0
:1005800000C00000C6CF40E00E94360008950F93DF
:100590001F93CF93DF931F92CDB7DEB78A01AE01D1
:1005A0004F5F5F4F0E9412018981813019F4F80179
:1005B000808302C0F80110820F90DF91CF911F91CC
:0805C0000F910895F894FFCF9C
:00000001FF
