:100000000C942A000C943F000C943F000C943F0089
:100010000C943F000C943F000C943F000C943F0064
:100020000C943F000C943F000C943F000C943F0054
:100030000C943F000C943F000C943F000C943F0044
:100040000C943F000C943F000C943F000C943F0034
:100050000C943F0011241FBECFE5D8E0DEBFCDBF1A
:1000600010E0A0E6B0E0ECE4F9E002C005900D92EB
:10007000A037B107D9F70E947B030C94A4040C9419
:100080000000813001F130F08230B1F1833009F4A9
:100090004CC00895413059F42AB381E090E002C089
:1000A000880F991F6A95E2F7822B8ABB08952AB3BD
:1000B00081E090E002C0880F991F6A95E2F7809571
:1000C00082238ABB0895413059F427B381E090E040
:1000D00002C0880F991F6A95E2F7822B87BB0895AB
:1000E00027B381E090E002C0880F991F6A95E2F77C
:1000F0008095822387BB0895413059F424B381E071
:1001000090E002C0880F991F6A95E2F7822B84BBAA
:10011000089524B381E090E002C0880F991F6A958A
:10012000E2F78095822384BB0895413059F421B3CE
:1001300081E090E002C0880F991F6A95E2F7822B58
:1001400081BB089521B381E090E002C0880F991F20
:100150006A95E2F78095822381BB089581111AC0C8
:10016000413061F49BB321E030E0062E02C0220F43
:10017000331F0A94E2F7292B2BBB0CC09BB321E061
:1001800030E0062E02C0220F331F0A94E2F72095BA
:1001900029232BBB8130D1F4413061F498B321E0A5
:1001A00030E0062E02C0220F331F0A94E2F7292BFB
:1001B00028BB0CC098B321E030E0062E02C0220F0D
:1001C000331F0A94E2F72095292328BB8230D1F40B
:1001D000413061F495B321E030E0062E02C0220FD9
:1001E000331F0A94E2F7292B25BB0CC095B321E0FD
:1001F00030E0062E02C0220F331F0A94E2F720954A
:10020000292325BB8330C1F4413059F422B381E066
:1002100090E002C0880F991F6A95E2F7822B82BB9B
:10022000089522B381E090E002C0880F991F6A957B
:10023000E2F78095822382BB08958130B1F028F0E7
:10024000823019F1833089F1089589B390E002C0BA
:10025000959587956A95E2F780FF04C081E0FA01E1
:1002600080830895FA011082089586B390E002C059
:10027000959587956A95E2F780FF04C081E0FA01C1
:1002800080830895FA011082089583B390E002C03C
:10029000959587956A95E2F780FF04C081E0FA01A1
:1002A00080830895FA011082089580B390E002C01F
:1002B000959587956A95E2F780FF04C081E0FA0181
:1002C00080830895FA0110820895813089F028F022
:1002D0008230C9F0833011F108952BB381E090E0B2
:1002E00002C0880F991F6A95E2F7822B8BBB089595
:1002F00028B381E090E002C0880F991F6A95E2F769
:10030000822B88BB089525B381E090E002C0880F5E
:10031000991F6A95E2F7822B85BB089522B381E08D
:1003200090E002C0880F991F6A95E2F7822B82BB8A
:1003300008957F928F929F92AF92BF92CF92DF9259
:10034000EF92FF920F931F93CF93DF93CDB7DEB75A
:1003500069970FB6F894DEBF0FBECDBF5C0124E0F5
:10036000298395E09A8386E08B8337E03C8333E0F2
:100370003D832E839F83888780E1E0E6F0E0DE0105
:10038000199601900D928A95E1F78FEFF501808320
:10039000712C912C4DC0C92CD12CE1E0F0E0EC0F78
:1003A000FD1FEC0DFD1D808040E0682D80E00E9467
:1003B000AE0010E032C0E12EF12CE5E0F0E0EC0FF1
:1003C000FD1FEE0DFF1D0081AE01475E5F4F602FE8
:1003D00082E00E941D01898D81111EC0EE0CFF1C60
:1003E000EE0CFF1C81E090E08C0F9D1FE80EF91EC3
:1003F000F701EC0DFD1D8085F501808307C0AE017E
:10040000475E5F4F602F82E00E941D01898D882327
:10041000B1F37724739403C01F5F143060F241E09E
:10042000682D80E00E94AE00F1E07F1629F09394E1
:1004300083E0891508F0AFCF69960FB6F894DEBF58
:100440000FBECDBFDF91CF911F910F91FF90EF9025
:10045000DF90CF90BF90AF909F908F907F90089546
:10046000CF93C82F80FF06C041E064E083E00E9484
:10047000AE0005C040E064E083E00E94AE00C1FF32
:1004800006C041E065E083E00E94AE0005C040E0A8
:1004900065E083E00E94AE00C2FF06C041E066E076
:1004A00083E00E94AE0005C040E066E083E00E9469
:1004B000AE00C3FF06C041E067E083E00E94AE00EB
:1004C00005C040E067E083E00E94AE00CF91089550
:1004D000CF93C82F40E061E081E00E94AE0040E091
:1004E00062E081E00E94AE008C2F82958F700E94A6
:1004F000300241E063E081E00E94AE008FE99FE0BE
:100500000197F1F700C0000040E063E081E00E9445
:10051000AE008C2F0E94300241E063E081E00E9437
:10052000AE008FE99FE00197F1F700C0000040E0C6
:1005300063E081E00E94AE00CF91089581E00E94C7
:1005400068028FE39FE10197F1F700C00000089572
:100550002FE785EB91E0215080409040E1F700C00B
:10056000000040E061E081E00E94AE0040E062E017
:1005700081E00E94AE0082E00E94300241E063E030
:1005800081E00E94AE008FE99FE00197F1F700C083
:10059000000040E063E081E00E94AE0080E20E9443
:1005A000680290EF9A95F1F78FE00E94680220EFC1
:1005B0002A95F1F781E00E9468028FE39FE101979D
:1005C000F1F700C0000086E00E9468020895CF9312
:1005D000C82F41E061E081E00E94AE0040E062E0AF
:1005E00081E00E94AE008C2F82958F700E943002B5
:1005F00041E063E081E00E94AE008FE99FE0019757
:10060000F1F700C0000040E063E081E00E94AE002E
:100610008C2F0E94300241E063E081E00E94AE0036
:100620008FE99FE00197F1F700C0000040E063E030
:1006300081E00E94AE00CF910895CF92DF92EF92B9
:10064000FF921F93CF93DF93CDB7DEB760970FB6BE
:10065000F894DEBF0FBECDBF6B017C0199235CF423
:100660008DE20E94E702F094E094D094C094C11C03
:10067000D11CE11CF11CC114D104E104F104D1F43A
:1006800080E30E94E70229C0C701B6012AE030E0FA
:1006900040E050E00E946304E1E0F0E0EC0FFD1F59
:1006A000E10FF11D605D6083C22ED32EE42EF52E86
:1006B0001F5F01C010E01C141D041E041F0424F35E
:1006C0000AC01150E1E0F0E0EC0FFD1FE10FF11D59
:1006D00080810E94E7021111F4CF60960FB6F89462
:1006E000DEBF0FBECDBFDF91CF911F91FF90EF9086
:1006F000DF90CF900895CF93DF931F92CDB7DEB7F1
:10070000198241E064E083E00E94410041E065E03D
:1007100083E00E94410041E066E083E00E944100E6
:1007200041E067E083E00E94410040E063E082E056
:100730000E94410040E064E082E00E94410040E00D
:1007400065E082E00E94410040E066E082E00E94B5
:10075000410063E082E00E94650164E082E00E9463
:10076000650165E082E00E94650166E082E00E942A
:10077000650141E061E081E00E94410041E062E00A
:1007800081E00E94410041E063E081E00E9441007D
:1007900041E064E080E00E94410041E065E080E0EB
:1007A0000E94410041E066E080E00E94410041E09B
:1007B00067E080E00E94410000E00E94A8028FEF05
:1007C0008983CE0101960E94990187E893E1019700
:1007D000F1F700C0000089818F3F99F30F2EF0EDF3
:1007E000EF2EF02DE80E0E94E70287EA91E60197CE
:1007F000F1F700C000008FEF8983CE0101960E94BF
:10080000990187E893E10197F1F700C00000198191
:100810001F3F99F3812F0E94E70287EA91E6019733
:10082000F1F700C000008FEF8983CE0101960E948E
:10083000990187E893E10197F1F700C000008981F1
:100840008F3F99F30F2EF0EDFF2EF02DF80E0E9442
:10085000E70287EA91E60197F1F700C000008FEF09
:100860008983CE0101960E94990187E893E101975F
:10087000F1F700C000008981833299F78DE30E946F
:10088000E70287EA91E60197F1F700C000001A320B
:1008900029F01B3231F40E2D0F0D03C0EF9C002DFB
:1008A0001124602F70E080E090E00E941D039FEB18
:1008B00027E289E0915020408040E1F700C000002D
:1008C0000E949E027ACF052E97FB1EF400940E9490
:1008D0007A0457FD07D00E94820407FC03D04EF42F
:1008E0000C947A0450954095309521953F4F4F4F89
:1008F0005F4F089590958095709561957F4F8F4FCC
:100900009F4F0895A1E21A2EAA1BBB1BFD010DC02B
:10091000AA1FBB1FEE1FFF1FA217B307E407F507AF
:1009200020F0A21BB30BE40BF50B661F771F881F8B
:10093000991F1A9469F760957095809590959B0121
:0C094000AC01BD01CF010895F894FFCF79
:10094C003132334134353642373839432A30234437
:00000001FF
