:100000000C942A000C943F000C943F000C943F0089
:100010000C943F000C943F000C943F000C943F0064
:100020000C943F000C943F000C943F000C943F0054
:100030000C943F000C943F000C943F000C943F0044
:100040000C943F000C943F000C943F000C943F0034
:100050000C943F0011241FBECFE5D8E0DEBFCDBF1A
:1000600010E0A0E6B0E0EAE8F9E002C005900D92E9
:10007000AE36B107D9F70E94CE020C94C3040C949B
:10008000000087B1806487B987B18F7787B987B15E
:100090008F7D87B986B18F7D86B986B1816086B93B
:1000A00086B1826086B986B1846086B986B180687F
:1000B00086B9089597B1907E97B997B1892B87B982
:1000C00086B1806486B9349BFECF86B1806186B9E3
:1000D00086B1806486B9349BFECF86B1806186B9D3
:1000E00024B185B190E0982F8827822BFB01918362
:1000F00080830895813001F130F08230B1F1833096
:1001000009F44CC00895413059F42AB381E090E0DD
:1001100002C0880F991F6A95E2F7822B8ABB089567
:100120002AB381E090E002C0880F991F6A95E2F738
:10013000809582238ABB0895413059F427B381E02A
:1001400090E002C0880F991F6A95E2F7822B87BB67
:10015000089527B381E090E002C0880F991F6A9547
:10016000E2F78095822387BB0895413059F424B388
:1001700081E090E002C0880F991F6A95E2F7822B18
:1001800084BB089524B381E090E002C0880F991FDA
:100190006A95E2F78095822384BB0895413059F433
:1001A00021B381E090E002C0880F991F6A95E2F7C1
:1001B000822B81BB089521B381E090E002C0880FBB
:1001C000991F6A95E2F78095822381BB089581117A
:1001D0001AC0413061F49BB321E030E0062E02C02A
:1001E000220F331F0A94E2F7292B2BBB0CC09BB3C1
:1001F00021E030E0062E02C0220F331F0A94E2F7FE
:10020000209529232BBB8130D1F4413061F498B380
:1002100021E030E0062E02C0220F331F0A94E2F7DD
:10022000292B28BB0CC098B321E030E0062E02C079
:10023000220F331F0A94E2F72095292328BB82302E
:10024000D1F4413061F495B321E030E0062E02C0D4
:10025000220F331F0A94E2F7292B25BB0CC095B35C
:1002600021E030E0062E02C0220F331F0A94E2F78D
:100270002095292325BB8330C1F4413059F422B3A2
:1002800081E090E002C0880F991F6A95E2F7822B07
:1002900082BB089522B381E090E002C0880F991FCD
:1002A0006A95E2F78095822382BB0895CF93C82F89
:1002B00080FF06C041E064E083E00E94E70005C0E3
:1002C00040E064E083E00E94E700C1FF06C041E037
:1002D00065E083E00E94E70005C040E065E083E060
:1002E0000E94E700C2FF06C041E066E083E00E9492
:1002F000E70005C040E066E083E00E94E700C3FF3E
:1003000006C041E067E083E00E94E70005C040E0EE
:1003100067E083E00E94E700CF910895CF93C82F54
:1003200040E061E081E00E94E70040E062E081E0BF
:100330000E94E7008C2F82958F700E94560141E049
:1003400063E081E00E94E7008FE99FE00197F1F709
:1003500000C0000040E063E081E00E94E7008C2FD5
:100360000E94560141E063E081E00E94E7008FE9CE
:100370009FE00197F1F700C0000040E063E081E0FA
:100380000E94E700CF91089581E00E948E018FE3E3
:100390009FE10197F1F700C000000895813029F432
:1003A00080E8860F0E948E010895823021F480EC4F
:1003B000860F0E948E0108952FE785EB91E0215072
:1003C00080409040E1F700C0000040E061E081E043
:1003D0000E94E70040E062E081E00E94E70082E0E6
:1003E0000E94560141E063E081E00E94E7008FE94E
:1003F0009FE00197F1F700C0000040E063E081E07A
:100400000E94E70080E20E948E0190EF9A95F1F73A
:100410008FE00E948E0120EF2A95F1F781E00E9483
:100420008E018FE39FE10197F1F700C0000086E0A5
:100430000E948E010895CF93C82F41E061E081E0D2
:100440000E94E70040E062E081E00E94E7008C2F1C
:1004500082958F700E94560141E063E081E00E9426
:10046000E7008FE99FE00197F1F700C0000040E04E
:1004700063E081E00E94E7008C2F0E94560141E07A
:1004800063E081E00E94E7008FE99FE00197F1F7C8
:1004900000C0000040E063E081E00E94E700CF91EF
:1004A00008950F931F93CF938C01C0E003C00E9467
:1004B0001B02CF5FF801EC0FF11D80818111F7CF96
:1004C000CF911F910F910895CF92DF92EF92FF92FB
:1004D0001F93CF93DF93CDB7DEB760970FB6F89435
:1004E000DEBF0FBECDBF6B017C0199235CF48DE2B2
:1004F0000E941B02F094E094D094C094C11CD11CC3
:10050000E11CF11CC114D104E104F104D1F480E335
:100510000E941B0229C0C701B6012AE030E040E07A
:1005200050E00E947304E1E0F0E0EC0FFD1FE10FEA
:10053000F11D605D6083C22ED32EE42EF52E1F5F69
:1005400001C010E01C141D041E041F0424F30AC083
:100550001150E1E0F0E0EC0FFD1FE10FF11D808193
:100560000E941B021111F4CF60960FB6F894DEBF03
:100570000FBECDBFDF91CF911F91FF90EF90DF9025
:10058000CF90089541E00E947A00089541E00E94D2
:10059000E700089540E00E94E7000895CF93DF93BD
:1005A00000D0CDB7DEB740E061E080E00E947A0085
:1005B00062E082E00E94C20267E082E00E94C20222
:1005C00063E083E00E94C20264E081E00E94C20214
:1005D00065E081E00E94C20266E081E00E94C20202
:1005E00067E081E00E94C20261E083E00E94C202F3
:1005F00041E061E081E00E947A0041E062E081E058
:100600000E947A0041E063E081E00E947A0041E0CC
:1006100064E083E00E947A0041E065E083E00E94AC
:100620007A0041E066E083E00E947A0041E067E002
:1006300083E00E947A000E9441000E94DC010E9437
:10064000C401BE016F5F7F4F81E00E945A0060E0ED
:1006500081E00E94CE0180E690E00E945102698113
:100660007A8180E090E00E94640285E690E00E943A
:10067000510229813A81A4E6B0E00E949204052E3D
:100680005AE096958795779567955A95D1F7502DAD
:100690000E94640289819A818038910508F562E0A0
:1006A00082E00E94C60267E082E00E94CA0263E024
:1006B00083E00E94CA0264E081E00E94CA0265E011
:1006C00081E00E94CA0266E081E00E94CA0267E0FF
:1006D00081E00E94CA0261E083E00E94CA02B1CFB9
:1006E0008F3F910509F008F562E082E00E94CA029E
:1006F00067E082E00E94C60263E083E00E94CA02D3
:1007000064E081E00E94CA0265E081E00E94CA02C2
:1007100066E081E00E94CA0267E081E00E94CA02AE
:1007200061E083E00E94CA028CCF803821E092070A
:1007300008F562E082E00E94CA0267E082E00E945F
:10074000CA0263E083E00E94C60264E081E00E9486
:10075000CA0265E081E00E94CA0266E081E00E9470
:10076000CA0267E081E00E94CA0261E083E00E9461
:10077000CA0267CF811522E0920708F562E082E0A5
:100780000E94CA0267E082E00E94CA0263E083E03E
:100790000E94CA0264E081E00E94C60265E081E036
:1007A0000E94CA0266E081E00E94CA0267E081E01E
:1007B0000E94CA0261E083E00E94CA0242CF8038F0
:1007C00022E0920708F562E082E00E94CA0267E038
:1007D00082E00E94CA0263E083E00E94CA0264E0F1
:1007E00081E00E94CA0265E081E00E94C60266E0E4
:1007F00081E00E94CA0267E081E00E94CA0261E0D3
:1008000083E00E94CA021DCF811523E0920708F5FC
:1008100062E082E00E94CA0267E082E00E94CA02AF
:1008200063E083E00E94CA0264E081E00E94CA02A1
:1008300065E081E00E94CA0266E081E00E94C60293
:1008400067E081E00E94CA0261E083E00E94CA0280
:10085000F8CE803823E0920708F562E082E00E943B
:10086000CA0267E082E00E94CA0263E083E00E945D
:10087000CA0264E081E00E94CA0265E081E00E9451
:10088000CA0266E081E00E94CA0267E081E00E943D
:10089000C60261E083E00E94CA02D3CE8115944073
:1008A00008F0CFCE62E082E00E94CA0267E082E0F8
:1008B0000E94CA0263E083E00E94CA0264E081E011
:1008C0000E94CA0265E081E00E94CA0266E081E0FF
:1008D0000E94CA0267E081E00E94CA0261E083E0F0
:1008E0000E94C602AECE052E97FB1EF400940E9415
:1008F0008A0457FD07D00E94A10407FC03D04EF4E0
:100900000C948A0450954095309521953F4F4F4F58
:100910005F4F089590958095709561957F4F8F4FAB
:100920009F4F0895A29FB001B39FC001A39F700D78
:10093000811D1124911DB29F700D811D1124911DE7
:100940000895A1E21A2EAA1BBB1BFD010DC0AA1F10
:10095000BB1FEE1FFF1FA217B307E407F50720F028
:10096000A21BB30BE40BF50B661F771F881F991FA3
:100970001A9469F760957095809590959B01AC01EC
:0A098000BD01CF010895F894FFCFE8
:0E098A004144433A00202620706572633A0013
:00000001FF
